{
  "contractName": "Coinflip",
  "abi": [
    {
      "anonymous": false,
      "inputs": [
        {
          "indexed": true,
          "internalType": "uint256",
          "name": "gameID",
          "type": "uint256"
        },
        {
          "indexed": true,
          "internalType": "address",
          "name": "player1",
          "type": "address"
        },
        {
          "indexed": false,
          "internalType": "uint256",
          "name": "betAmount",
          "type": "uint256"
        },
        {
          "indexed": false,
          "internalType": "bool",
          "name": "player1Choice",
          "type": "bool"
        }
      ],
      "name": "GameCreated",
      "type": "event"
    },
    {
      "anonymous": false,
      "inputs": [
        {
          "indexed": true,
          "internalType": "uint256",
          "name": "gameID",
          "type": "uint256"
        },
        {
          "indexed": true,
          "internalType": "address",
          "name": "player2",
          "type": "address"
        }
      ],
      "name": "GameJoined",
      "type": "event"
    },
    {
      "inputs": [
        {
          "internalType": "address",
          "name": "",
          "type": "address"
        }
      ],
      "name": "transactionVolume",
      "outputs": [
        {
          "internalType": "uint256",
          "name": "",
          "type": "uint256"
        }
      ],
      "stateMutability": "view",
      "type": "function",
      "constant": true
    },
    {
      "inputs": [
        {
          "internalType": "uint256",
          "name": "_amount",
          "type": "uint256"
        },
        {
          "internalType": "bool",
          "name": "_choice",
          "type": "bool"
        }
      ],
      "name": "createGame",
      "outputs": [],
      "stateMutability": "payable",
      "type": "function",
      "payable": true
    },
    {
      "inputs": [
        {
          "internalType": "uint256",
          "name": "_gameID",
          "type": "uint256"
        }
      ],
      "name": "joinGame",
      "outputs": [],
      "stateMutability": "payable",
      "type": "function",
      "payable": true
    },
    {
      "inputs": [
        {
          "internalType": "uint256",
          "name": "_gameID",
          "type": "uint256"
        }
      ],
      "name": "refundIfNoOpponent",
      "outputs": [],
      "stateMutability": "nonpayable",
      "type": "function"
    },
    {
      "inputs": [],
      "name": "getOpenGames",
      "outputs": [
        {
          "internalType": "uint256[]",
          "name": "",
          "type": "uint256[]"
        }
      ],
      "stateMutability": "view",
      "type": "function",
      "constant": true
    },
    {
      "inputs": [
        {
          "internalType": "uint256",
          "name": "_gameID",
          "type": "uint256"
        }
      ],
      "name": "getGame",
      "outputs": [
        {
          "internalType": "address",
          "name": "player1",
          "type": "address"
        },
        {
          "internalType": "address",
          "name": "player2",
          "type": "address"
        },
        {
          "internalType": "uint256",
          "name": "betAmount",
          "type": "uint256"
        },
        {
          "internalType": "address",
          "name": "winner",
          "type": "address"
        },
        {
          "internalType": "uint256",
          "name": "createTime",
          "type": "uint256"
        },
        {
          "internalType": "bool",
          "name": "player1Choice",
          "type": "bool"
        }
      ],
      "stateMutability": "view",
      "type": "function",
      "constant": true
    }
  ],
  "bytecode": "0x60806040526000805534801561001457600080fd5b506114df806100246000396000f3fe6080604052600436106100555760003560e01c806305bbff1f1461005a5780635a25ebac146100835780636bfca566146100c0578063a2f77bcc146100dc578063e75d7e3e1461011e578063efaa55a014610149575b600080fd5b34801561006657600080fd5b50610081600480360381019061007c9190610cf2565b610165565b005b34801561008f57600080fd5b506100aa60048036038101906100a59190610d7d565b61031a565b6040516100b79190610db9565b60405180910390f35b6100da60048036038101906100d59190610e0c565b610332565b005b3480156100e857600080fd5b5061010360048036038101906100fe9190610cf2565b6105cb565b60405161011596959493929190610e6a565b60405180910390f35b34801561012a57600080fd5b5061013361068c565b6040516101409190610f89565b60405180910390f35b610163600480360381019061015e9190610cf2565b61083a565b005b60006001600083815260200190815260200160002090508060000160009054906101000a900473ffffffffffffffffffffffffffffffffffffffff1673ffffffffffffffffffffffffffffffffffffffff163373ffffffffffffffffffffffffffffffffffffffff161461020e576040517f08c379a00000000000000000000000000000000000000000000000000000000081526004016102059061102e565b60405180910390fd5b600073ffffffffffffffffffffffffffffffffffffffff168160010160009054906101000a900473ffffffffffffffffffffffffffffffffffffffff1673ffffffffffffffffffffffffffffffffffffffff16146102a1576040517f08c379a00000000000000000000000000000000000000000000000000000000081526004016102989061109a565b60405180910390fd5b6000816002015490508160000160009054906101000a900473ffffffffffffffffffffffffffffffffffffffff1673ffffffffffffffffffffffffffffffffffffffff166108fc829081150290604051600060405180830381858888f19350505050158015610314573d6000803e3d6000fd5b50505050565b60026020528060005260406000206000915090505481565b813414610374576040517f08c379a000000000000000000000000000000000000000000000000000000000815260040161036b90611106565b60405180910390fd5b6040518060c001604052803373ffffffffffffffffffffffffffffffffffffffff168152602001600073ffffffffffffffffffffffffffffffffffffffff168152602001838152602001600073ffffffffffffffffffffffffffffffffffffffff168152602001428152602001821515815250600160008054815260200190815260200160002060008201518160000160006101000a81548173ffffffffffffffffffffffffffffffffffffffff021916908373ffffffffffffffffffffffffffffffffffffffff16021790555060208201518160010160006101000a81548173ffffffffffffffffffffffffffffffffffffffff021916908373ffffffffffffffffffffffffffffffffffffffff1602179055506040820151816002015560608201518160030160006101000a81548173ffffffffffffffffffffffffffffffffffffffff021916908373ffffffffffffffffffffffffffffffffffffffff1602179055506080820151816004015560a08201518160050160006101000a81548160ff02191690831515021790555090505081600260003373ffffffffffffffffffffffffffffffffffffffff1673ffffffffffffffffffffffffffffffffffffffff16815260200190815260200160002060008282546105569190611155565b925050819055503373ffffffffffffffffffffffffffffffffffffffff166000547faf216e6dc276f1d61180ba02498c6f09466c70c9f30779c9f792d3e8babee31784846040516105a8929190611189565b60405180910390a36000808154809291906105c2906111b2565b91905055505050565b60008060008060008060006001600089815260200190815260200160002090508060000160009054906101000a900473ffffffffffffffffffffffffffffffffffffffff168160010160009054906101000a900473ffffffffffffffffffffffffffffffffffffffff1682600201548360030160009054906101000a900473ffffffffffffffffffffffffffffffffffffffff1684600401548560050160009054906101000a900460ff169650965096509650965096505091939550919395565b60606000805b60005481101561072857600073ffffffffffffffffffffffffffffffffffffffff166001600083815260200190815260200160002060010160009054906101000a900473ffffffffffffffffffffffffffffffffffffffff1673ffffffffffffffffffffffffffffffffffffffff1603610715578180610711906111b2565b9250505b8080610720906111b2565b915050610692565b5060008167ffffffffffffffff811115610745576107446111fa565b5b6040519080825280602002602001820160405280156107735781602001602082028036833780820191505090505b5090506000805b60005481101561083057600073ffffffffffffffffffffffffffffffffffffffff166001600083815260200190815260200160002060010160009054906101000a900473ffffffffffffffffffffffffffffffffffffffff1673ffffffffffffffffffffffffffffffffffffffff160361081d578083838151811061080257610801611229565b5b6020026020010181815250508180610819906111b2565b9250505b8080610828906111b2565b91505061077a565b5081935050505090565b6000600160008381526020019081526020016000209050600073ffffffffffffffffffffffffffffffffffffffff168160000160009054906101000a900473ffffffffffffffffffffffffffffffffffffffff1673ffffffffffffffffffffffffffffffffffffffff16036108e4576040517f08c379a00000000000000000000000000000000000000000000000000000000081526004016108db906112a4565b60405180910390fd5b8060020154341461092a576040517f08c379a000000000000000000000000000000000000000000000000000000000815260040161092190611106565b60405180910390fd5b600073ffffffffffffffffffffffffffffffffffffffff168160010160009054906101000a900473ffffffffffffffffffffffffffffffffffffffff1673ffffffffffffffffffffffffffffffffffffffff16146109bd576040517f08c379a00000000000000000000000000000000000000000000000000000000081526004016109b490611310565b60405180910390fd5b338160010160006101000a81548173ffffffffffffffffffffffffffffffffffffffff021916908373ffffffffffffffffffffffffffffffffffffffff16021790555034600260003373ffffffffffffffffffffffffffffffffffffffff1673ffffffffffffffffffffffffffffffffffffffff1681526020019081526020016000206000828254610a4f9190611155565b925050819055503373ffffffffffffffffffffffffffffffffffffffff16827f45c4f9cbafe186141862608c493f28b823fde4c2142bedc3f5169961a73fdd2260405160405180910390a3610aa382610aa7565b5050565b60006001600083815260200190815260200160002090506000610acb600284610c3f565b905060008082148015610aec57508260050160009054906101000a900460ff165b80610b125750600182148015610b1157508260050160009054906101000a900460ff16155b5b905080610b43578260010160009054906101000a900473ffffffffffffffffffffffffffffffffffffffff16610b69565b8260000160009054906101000a900473ffffffffffffffffffffffffffffffffffffffff165b8360030160006101000a81548173ffffffffffffffffffffffffffffffffffffffff021916908373ffffffffffffffffffffffffffffffffffffffff160217905550600060c861018e8560020154610bc19190611330565b610bcb91906113a1565b90508360030160009054906101000a900473ffffffffffffffffffffffffffffffffffffffff1673ffffffffffffffffffffffffffffffffffffffff166108fc829081150290604051600060405180830381858888f19350505050158015610c37573d6000803e3d6000fd5b505050505050565b600080600160008481526020019081526020016000209050806002016000815480929190610c6c906111b2565b91905055508342338360020154604051602001610c8b9392919061143b565b6040516020818303038152906040528051906020012060001c610cae9190611478565b91505092915050565b600080fd5b6000819050919050565b610ccf81610cbc565b8114610cda57600080fd5b50565b600081359050610cec81610cc6565b92915050565b600060208284031215610d0857610d07610cb7565b5b6000610d1684828501610cdd565b91505092915050565b600073ffffffffffffffffffffffffffffffffffffffff82169050919050565b6000610d4a82610d1f565b9050919050565b610d5a81610d3f565b8114610d6557600080fd5b50565b600081359050610d7781610d51565b92915050565b600060208284031215610d9357610d92610cb7565b5b6000610da184828501610d68565b91505092915050565b610db381610cbc565b82525050565b6000602082019050610dce6000830184610daa565b92915050565b60008115159050919050565b610de981610dd4565b8114610df457600080fd5b50565b600081359050610e0681610de0565b92915050565b60008060408385031215610e2357610e22610cb7565b5b6000610e3185828601610cdd565b9250506020610e4285828601610df7565b9150509250929050565b610e5581610d3f565b82525050565b610e6481610dd4565b82525050565b600060c082019050610e7f6000830189610e4c565b610e8c6020830188610e4c565b610e996040830187610daa565b610ea66060830186610e4c565b610eb36080830185610daa565b610ec060a0830184610e5b565b979650505050505050565b600081519050919050565b600082825260208201905092915050565b6000819050602082019050919050565b610f0081610cbc565b82525050565b6000610f128383610ef7565b60208301905092915050565b6000602082019050919050565b6000610f3682610ecb565b610f408185610ed6565b9350610f4b83610ee7565b8060005b83811015610f7c578151610f638882610f06565b9750610f6e83610f1e565b925050600181019050610f4f565b5085935050505092915050565b60006020820190508181036000830152610fa38184610f2b565b905092915050565b600082825260208201905092915050565b7f4f6e6c7920706c61796572312063616e2072657175657374206120726566756e60008201527f6400000000000000000000000000000000000000000000000000000000000000602082015250565b6000611018602183610fab565b915061102382610fbc565b604082019050919050565b600060208201905081810360008301526110478161100b565b9050919050565b7f47616d65206861732061207365636f6e6420706c617965720000000000000000600082015250565b6000611084601883610fab565b915061108f8261104e565b602082019050919050565b600060208201905081810360008301526110b381611077565b9050919050565b7f496e636f727265637420616d6f756e742073656e740000000000000000000000600082015250565b60006110f0601583610fab565b91506110fb826110ba565b602082019050919050565b6000602082019050818103600083015261111f816110e3565b9050919050565b7f4e487b7100000000000000000000000000000000000000000000000000000000600052601160045260246000fd5b600061116082610cbc565b915061116b83610cbc565b925082820190508082111561118357611182611126565b5b92915050565b600060408201905061119e6000830185610daa565b6111ab6020830184610e5b565b9392505050565b60006111bd82610cbc565b91507fffffffffffffffffffffffffffffffffffffffffffffffffffffffffffffffff82036111ef576111ee611126565b5b600182019050919050565b7f4e487b7100000000000000000000000000000000000000000000000000000000600052604160045260246000fd5b7f4e487b7100000000000000000000000000000000000000000000000000000000600052603260045260246000fd5b7f47616d6520646f6573206e6f7420657869737400000000000000000000000000600082015250565b600061128e601383610fab565b915061129982611258565b602082019050919050565b600060208201905081810360008301526112bd81611281565b9050919050565b7f47616d6520616c7265616479206861732061207365636f6e6420706c61796572600082015250565b60006112fa602083610fab565b9150611305826112c4565b602082019050919050565b60006020820190508181036000830152611329816112ed565b9050919050565b600061133b82610cbc565b915061134683610cbc565b925082820261135481610cbc565b9150828204841483151761136b5761136a611126565b5b5092915050565b7f4e487b7100000000000000000000000000000000000000000000000000000000600052601260045260246000fd5b60006113ac82610cbc565b91506113b783610cbc565b9250826113c7576113c6611372565b5b828204905092915050565b6000819050919050565b6113ed6113e882610cbc565b6113d2565b82525050565b60008160601b9050919050565b600061140b826113f3565b9050919050565b600061141d82611400565b9050919050565b61143561143082610d3f565b611412565b82525050565b600061144782866113dc565b6020820191506114578285611424565b60148201915061146782846113dc565b602082019150819050949350505050565b600061148382610cbc565b915061148e83610cbc565b92508261149e5761149d611372565b5b82820690509291505056fea2646970667358221220161f4a65f14e4ffab99b3529ea57e9e29189bd6dbd368049ae6270cbfef209ff64736f6c63430008130033",
  "immutableReferences": {},
  "source": "// SPDX-License-Identifier: MIT\npragma solidity ^0.8.19;\n\ncontract Coinflip {\n    struct Game {\n        address payable player1;\n        address payable player2;\n        uint256 betAmount;\n        address payable winner;\n        uint256 createTime;\n        bool player1Choice; // true for heads, false for tails\n    }\n\n    uint256 private gameID = 0;\n    mapping(uint256 => Game) private games;\n    mapping(address => uint256) public transactionVolume;\n\n    // vnement pour notifier la cration d'une partie\n    event GameCreated(uint256 indexed gameID, address indexed player1, uint256 betAmount, bool player1Choice);\n    \n    // vnement pour notifier le dbut de la partie (lorsqu'un second joueur rejoint)\n    event GameJoined(uint256 indexed gameID, address indexed player2);\n    \n    // Fonction de cration d'une partie\n    function createGame(uint256 _amount, bool _choice) external payable {\n        require(msg.value == _amount, \"Incorrect amount sent\");\n\n        games[gameID] = Game({\n            player1: payable(msg.sender),\n            player2: payable(address(0)),\n            betAmount: _amount,\n            winner: payable(address(0)),\n            createTime: block.timestamp,\n            player1Choice: _choice\n        });\n\n        transactionVolume[msg.sender] += _amount;\n        emit GameCreated(gameID, msg.sender, _amount, _choice);\n        gameID++;\n    }\n\n    // Fonction pour rejoindre une partie existante\n    function joinGame(uint256 _gameID) external payable {\n        Game storage game = games[_gameID];\n        require(game.player1 != address(0), \"Game does not exist\");\n        //require(block.timestamp <= game.createTime + 5 minutes, \"Game join window expired\");\n        require(msg.value == game.betAmount, \"Incorrect amount sent\");\n        require(game.player2 == address(0), \"Game already has a second player\");\n\n        game.player2 = payable(msg.sender);\n        transactionVolume[msg.sender] += msg.value;\n        emit GameJoined(_gameID, msg.sender);\n        flip(_gameID);\n    }\n\n    // Fonction de gnration d'un nombre pseudo-alatoire\n    function randMod(uint _modulus, uint256 _gameID) internal returns(uint) {\n        Game storage game = games[_gameID];\n        game.betAmount++; // Modifie la valeur pour varier l'input\n        return uint(keccak256(abi.encodePacked(block.timestamp, msg.sender, game.betAmount))) % _modulus;\n    }\n\n    // Fonction qui effectue le coinflip et distribue le gain\n    function flip(uint256 _gameID) internal {\n        Game storage game = games[_gameID];\n        uint result = randMod(2, _gameID);\n        bool player1Wins = (result == 0 && game.player1Choice) || (result == 1 && !game.player1Choice);\n        game.winner = player1Wins ? game.player1 : game.player2;\n\n        uint256 payout = game.betAmount * 398 / 200; // Paiement de 1.99 fois la mise\n        game.winner.transfer(payout);\n        // Le contrat conserve le reste\n    }\n\n    // Fonction pour demander un remboursement si aucun second joueur n'a rejoint\n    function refundIfNoOpponent(uint256 _gameID) external {\n        Game storage game = games[_gameID];\n        require(msg.sender == game.player1, \"Only player1 can request a refund\");\n        //require(block.timestamp > game.createTime + 5 minutes, \"Refund window not yet opened\");\n        require(game.player2 == address(0), \"Game has a second player\");\n\n        uint256 refundAmount = game.betAmount;\n        game.player1.transfer(refundAmount);\n        // Pensez  soustraire ventuellement des frais pour couvrir les cots de transaction\n    }\n    \n    // Fonction de lecture pour rcuprer la liste des identifiants de parties ouvertes\n    function getOpenGames() external view returns (uint256[] memory) {\n        uint256 openCount = 0;\n        // Comptage des parties ouvertes\n        for (uint256 i = 0; i < gameID; i++) {\n            if (games[i].player2 == address(0)) {\n                openCount++;\n            }\n        }\n        uint256[] memory openGameIds = new uint256[](openCount);\n        uint256 index = 0;\n        // Remplissage du tableau avec les identifiants des parties ouvertes\n        for (uint256 i = 0; i < gameID; i++) {\n            if (games[i].player2 == address(0)) {\n                openGameIds[index] = i;\n                index++;\n            }\n        }\n        return openGameIds;\n    }\n    \n    // Fonction de lecture pour rcuprer les dtails d'une partie\n    function getGame(uint256 _gameID) external view returns (\n        address player1,\n        address player2,\n        uint256 betAmount,\n        address winner,\n        uint256 createTime,\n        bool player1Choice\n    ) {\n        Game storage game = games[_gameID];\n        return (\n            game.player1,\n            game.player2,\n            game.betAmount,\n            game.winner,\n            game.createTime,\n            game.player1Choice\n        );\n    }\n}\n",
  "sourcePath": "/Users/florent/Desktop/Projects/coinflip/contracts/coinflip.sol",
  "compiler": {
    "name": "solc",
    "version": "0.8.19+commit.7dd6d404.Emscripten.clang"
  },
  "schemaVersion": "3.4.4",
  "updatedAt": "2025-03-07T23:04:51.594Z",
  "networkType": "ethereum",
  "devdoc": {
    "kind": "dev",
    "methods": {},
    "version": 1
  },
  "userdoc": {
    "kind": "user",
    "methods": {},
    "version": 1
  }
}